{
  "contractName": "SolnSquareVerifier",
  "abi": [
    {
      "inputs": [
        {
          "internalType": "address",
          "name": "verifierAddress",
          "type": "address"
        },
        {
          "internalType": "string",
          "name": "name",
          "type": "string"
        },
        {
          "internalType": "string",
          "name": "symbol",
          "type": "string"
        },
        {
          "internalType": "string",
          "name": "baseTokenURI",
          "type": "string"
        }
      ],
      "payable": false,
      "stateMutability": "nonpayable",
      "type": "constructor"
    },
    {
      "anonymous": false,
      "inputs": [
        {
          "indexed": true,
          "internalType": "address",
          "name": "owner",
          "type": "address"
        },
        {
          "indexed": true,
          "internalType": "address",
          "name": "approved",
          "type": "address"
        },
        {
          "indexed": true,
          "internalType": "uint256",
          "name": "tokenId",
          "type": "uint256"
        }
      ],
      "name": "Approval",
      "type": "event"
    },
    {
      "anonymous": false,
      "inputs": [
        {
          "indexed": true,
          "internalType": "address",
          "name": "owner",
          "type": "address"
        },
        {
          "indexed": true,
          "internalType": "address",
          "name": "operator",
          "type": "address"
        },
        {
          "indexed": false,
          "internalType": "bool",
          "name": "approved",
          "type": "bool"
        }
      ],
      "name": "ApprovalForAll",
      "type": "event"
    },
    {
      "anonymous": false,
      "inputs": [
        {
          "indexed": false,
          "internalType": "address",
          "name": "",
          "type": "address"
        }
      ],
      "name": "Paused",
      "type": "event"
    },
    {
      "anonymous": false,
      "inputs": [
        {
          "indexed": false,
          "internalType": "address",
          "name": "owner",
          "type": "address"
        }
      ],
      "name": "SolutionAdded",
      "type": "event"
    },
    {
      "anonymous": false,
      "inputs": [
        {
          "indexed": true,
          "internalType": "address",
          "name": "from",
          "type": "address"
        },
        {
          "indexed": true,
          "internalType": "address",
          "name": "to",
          "type": "address"
        },
        {
          "indexed": true,
          "internalType": "uint256",
          "name": "tokenId",
          "type": "uint256"
        }
      ],
      "name": "Transfer",
      "type": "event"
    },
    {
      "anonymous": false,
      "inputs": [
        {
          "indexed": false,
          "internalType": "address",
          "name": "",
          "type": "address"
        }
      ],
      "name": "Unpaused",
      "type": "event"
    },
    {
      "anonymous": false,
      "inputs": [
        {
          "indexed": true,
          "internalType": "address",
          "name": "oldOwner",
          "type": "address"
        },
        {
          "indexed": true,
          "internalType": "address",
          "name": "newOwner",
          "type": "address"
        }
      ],
      "name": "ownershipTransferred",
      "type": "event"
    },
    {
      "constant": false,
      "inputs": [
        {
          "internalType": "bytes32",
          "name": "_myid",
          "type": "bytes32"
        },
        {
          "internalType": "string",
          "name": "_result",
          "type": "string"
        }
      ],
      "name": "__callback",
      "outputs": [],
      "payable": false,
      "stateMutability": "nonpayable",
      "type": "function"
    },
    {
      "constant": false,
      "inputs": [
        {
          "internalType": "bytes32",
          "name": "_myid",
          "type": "bytes32"
        },
        {
          "internalType": "string",
          "name": "_result",
          "type": "string"
        },
        {
          "internalType": "bytes",
          "name": "_proof",
          "type": "bytes"
        }
      ],
      "name": "__callback",
      "outputs": [],
      "payable": false,
      "stateMutability": "nonpayable",
      "type": "function"
    },
    {
      "constant": true,
      "inputs": [],
      "name": "_owner",
      "outputs": [
        {
          "internalType": "address",
          "name": "",
          "type": "address"
        }
      ],
      "payable": false,
      "stateMutability": "view",
      "type": "function"
    },
    {
      "constant": false,
      "inputs": [
        {
          "internalType": "address",
          "name": "to",
          "type": "address"
        },
        {
          "internalType": "uint256",
          "name": "tokenId",
          "type": "uint256"
        }
      ],
      "name": "approve",
      "outputs": [],
      "payable": false,
      "stateMutability": "nonpayable",
      "type": "function"
    },
    {
      "constant": true,
      "inputs": [
        {
          "internalType": "address",
          "name": "owner",
          "type": "address"
        }
      ],
      "name": "balanceOf",
      "outputs": [
        {
          "internalType": "uint256",
          "name": "",
          "type": "uint256"
        }
      ],
      "payable": false,
      "stateMutability": "view",
      "type": "function"
    },
    {
      "constant": true,
      "inputs": [],
      "name": "baseTokenURI",
      "outputs": [
        {
          "internalType": "string",
          "name": "",
          "type": "string"
        }
      ],
      "payable": false,
      "stateMutability": "view",
      "type": "function"
    },
    {
      "constant": true,
      "inputs": [
        {
          "internalType": "uint256",
          "name": "tokenId",
          "type": "uint256"
        }
      ],
      "name": "getApproved",
      "outputs": [
        {
          "internalType": "address",
          "name": "",
          "type": "address"
        }
      ],
      "payable": false,
      "stateMutability": "view",
      "type": "function"
    },
    {
      "constant": true,
      "inputs": [
        {
          "internalType": "address",
          "name": "owner",
          "type": "address"
        },
        {
          "internalType": "address",
          "name": "operator",
          "type": "address"
        }
      ],
      "name": "isApprovedForAll",
      "outputs": [
        {
          "internalType": "bool",
          "name": "",
          "type": "bool"
        }
      ],
      "payable": false,
      "stateMutability": "view",
      "type": "function"
    },
    {
      "constant": false,
      "inputs": [
        {
          "internalType": "address",
          "name": "to",
          "type": "address"
        },
        {
          "internalType": "uint256",
          "name": "tokenId",
          "type": "uint256"
        }
      ],
      "name": "mint",
      "outputs": [
        {
          "internalType": "bool",
          "name": "",
          "type": "bool"
        }
      ],
      "payable": false,
      "stateMutability": "nonpayable",
      "type": "function"
    },
    {
      "constant": true,
      "inputs": [],
      "name": "name",
      "outputs": [
        {
          "internalType": "string",
          "name": "",
          "type": "string"
        }
      ],
      "payable": false,
      "stateMutability": "view",
      "type": "function"
    },
    {
      "constant": true,
      "inputs": [
        {
          "internalType": "uint256",
          "name": "tokenId",
          "type": "uint256"
        }
      ],
      "name": "ownerOf",
      "outputs": [
        {
          "internalType": "address",
          "name": "",
          "type": "address"
        }
      ],
      "payable": false,
      "stateMutability": "view",
      "type": "function"
    },
    {
      "constant": false,
      "inputs": [],
      "name": "pause",
      "outputs": [],
      "payable": false,
      "stateMutability": "nonpayable",
      "type": "function"
    },
    {
      "constant": false,
      "inputs": [
        {
          "internalType": "address",
          "name": "from",
          "type": "address"
        },
        {
          "internalType": "address",
          "name": "to",
          "type": "address"
        },
        {
          "internalType": "uint256",
          "name": "tokenId",
          "type": "uint256"
        }
      ],
      "name": "safeTransferFrom",
      "outputs": [],
      "payable": false,
      "stateMutability": "nonpayable",
      "type": "function"
    },
    {
      "constant": false,
      "inputs": [
        {
          "internalType": "address",
          "name": "from",
          "type": "address"
        },
        {
          "internalType": "address",
          "name": "to",
          "type": "address"
        },
        {
          "internalType": "uint256",
          "name": "tokenId",
          "type": "uint256"
        },
        {
          "internalType": "bytes",
          "name": "_data",
          "type": "bytes"
        }
      ],
      "name": "safeTransferFrom",
      "outputs": [],
      "payable": false,
      "stateMutability": "nonpayable",
      "type": "function"
    },
    {
      "constant": false,
      "inputs": [
        {
          "internalType": "address",
          "name": "to",
          "type": "address"
        },
        {
          "internalType": "bool",
          "name": "approved",
          "type": "bool"
        }
      ],
      "name": "setApprovalForAll",
      "outputs": [],
      "payable": false,
      "stateMutability": "nonpayable",
      "type": "function"
    },
    {
      "constant": true,
      "inputs": [
        {
          "internalType": "bytes4",
          "name": "interfaceId",
          "type": "bytes4"
        }
      ],
      "name": "supportsInterface",
      "outputs": [
        {
          "internalType": "bool",
          "name": "",
          "type": "bool"
        }
      ],
      "payable": false,
      "stateMutability": "view",
      "type": "function"
    },
    {
      "constant": true,
      "inputs": [],
      "name": "symbol",
      "outputs": [
        {
          "internalType": "string",
          "name": "",
          "type": "string"
        }
      ],
      "payable": false,
      "stateMutability": "view",
      "type": "function"
    },
    {
      "constant": true,
      "inputs": [
        {
          "internalType": "uint256",
          "name": "index",
          "type": "uint256"
        }
      ],
      "name": "tokenByIndex",
      "outputs": [
        {
          "internalType": "uint256",
          "name": "",
          "type": "uint256"
        }
      ],
      "payable": false,
      "stateMutability": "view",
      "type": "function"
    },
    {
      "constant": true,
      "inputs": [
        {
          "internalType": "address",
          "name": "owner",
          "type": "address"
        },
        {
          "internalType": "uint256",
          "name": "index",
          "type": "uint256"
        }
      ],
      "name": "tokenOfOwnerByIndex",
      "outputs": [
        {
          "internalType": "uint256",
          "name": "",
          "type": "uint256"
        }
      ],
      "payable": false,
      "stateMutability": "view",
      "type": "function"
    },
    {
      "constant": true,
      "inputs": [
        {
          "internalType": "uint256",
          "name": "tokenId",
          "type": "uint256"
        }
      ],
      "name": "tokenURI",
      "outputs": [
        {
          "internalType": "string",
          "name": "",
          "type": "string"
        }
      ],
      "payable": false,
      "stateMutability": "view",
      "type": "function"
    },
    {
      "constant": true,
      "inputs": [],
      "name": "totalSupply",
      "outputs": [
        {
          "internalType": "uint256",
          "name": "",
          "type": "uint256"
        }
      ],
      "payable": false,
      "stateMutability": "view",
      "type": "function"
    },
    {
      "constant": false,
      "inputs": [
        {
          "internalType": "address",
          "name": "from",
          "type": "address"
        },
        {
          "internalType": "address",
          "name": "to",
          "type": "address"
        },
        {
          "internalType": "uint256",
          "name": "tokenId",
          "type": "uint256"
        }
      ],
      "name": "transferFrom",
      "outputs": [],
      "payable": false,
      "stateMutability": "nonpayable",
      "type": "function"
    },
    {
      "constant": false,
      "inputs": [
        {
          "internalType": "address",
          "name": "newOwner",
          "type": "address"
        }
      ],
      "name": "transferOwnership",
      "outputs": [],
      "payable": false,
      "stateMutability": "nonpayable",
      "type": "function"
    },
    {
      "constant": false,
      "inputs": [],
      "name": "unPause",
      "outputs": [],
      "payable": false,
      "stateMutability": "nonpayable",
      "type": "function"
    },
    {
      "constant": false,
      "inputs": [
        {
          "internalType": "uint256[2]",
          "name": "a",
          "type": "uint256[2]"
        },
        {
          "internalType": "uint256[2][2]",
          "name": "b",
          "type": "uint256[2][2]"
        },
        {
          "internalType": "uint256[2]",
          "name": "c",
          "type": "uint256[2]"
        },
        {
          "internalType": "uint256[2]",
          "name": "input",
          "type": "uint256[2]"
        },
        {
          "internalType": "address",
          "name": "to",
          "type": "address"
        },
        {
          "internalType": "uint256",
          "name": "tokenId",
          "type": "uint256"
        }
      ],
      "name": "addSolution",
      "outputs": [],
      "payable": false,
      "stateMutability": "nonpayable",
      "type": "function"
    },
    {
      "constant": false,
      "inputs": [
        {
          "internalType": "address",
          "name": "to",
          "type": "address"
        },
        {
          "internalType": "uint256",
          "name": "tokenId",
          "type": "uint256"
        }
      ],
      "name": "mintVerify",
      "outputs": [
        {
          "internalType": "bool",
          "name": "",
          "type": "bool"
        }
      ],
      "payable": false,
      "stateMutability": "nonpayable",
      "type": "function"
    }
  ],
  "bytecode": "0x60806040523480156200001157600080fd5b5060405162004676380380620046768339818101604052620000379190810190620003b0565b828282828282336000806101000a81548173ffffffffffffffffffffffffffffffffffffffff021916908373ffffffffffffffffffffffffffffffffffffffff1602179055503373ffffffffffffffffffffffffffffffffffffffff16600073ffffffffffffffffffffffffffffffffffffffff167f7699c77f2404f9b6bbd003861bb4af8ae70b205e19e73d7ec7fe4590db59a6b760405160405180910390a360008060146101000a81548160ff0219169083151502179055506200010a6301ffc9a760e01b620001ee60201b60201c565b620001226380ac58cd60e01b620001ee60201b60201c565b6200013a63780e9d6360e01b620001ee60201b60201c565b82600f9080519060200190620001529291906200028e565b5081601090805190602001906200016b9291906200028e565b508060119080519060200190620001849291906200028e565b506200019d635b5e139f60e01b620001ee60201b60201c565b50505050505083601360006101000a81548173ffffffffffffffffffffffffffffffffffffffff021916908373ffffffffffffffffffffffffffffffffffffffff1602179055505050505062000546565b63ffffffff60e01b817bffffffffffffffffffffffffffffffffffffffffffffffffffffffff191614156200022257600080fd5b6001806000837bffffffffffffffffffffffffffffffffffffffffffffffffffffffff19167bffffffffffffffffffffffffffffffffffffffffffffffffffffffff1916815260200190815260200160002060006101000a81548160ff02191690831515021790555050565b828054600181600116156101000203166002900490600052602060002090601f016020900481019282601f10620002d157805160ff191683800117855562000302565b8280016001018555821562000302579182015b8281111562000301578251825591602001919060010190620002e4565b5b50905062000311919062000315565b5090565b6200033a91905b80821115620003365760008160009055506001016200031c565b5090565b90565b6000815190506200034e816200052c565b92915050565b600082601f8301126200036657600080fd5b81516200037d620003778262000495565b62000467565b915080825260208301602083018583830111156200039a57600080fd5b620003a7838284620004f6565b50505092915050565b60008060008060808587031215620003c757600080fd5b6000620003d7878288016200033d565b945050602085015167ffffffffffffffff811115620003f557600080fd5b620004038782880162000354565b935050604085015167ffffffffffffffff8111156200042157600080fd5b6200042f8782880162000354565b925050606085015167ffffffffffffffff8111156200044d57600080fd5b6200045b8782880162000354565b91505092959194509250565b6000604051905081810181811067ffffffffffffffff821117156200048b57600080fd5b8060405250919050565b600067ffffffffffffffff821115620004ad57600080fd5b601f19601f8301169050602081019050919050565b6000620004cf82620004d6565b9050919050565b600073ffffffffffffffffffffffffffffffffffffffff82169050919050565b60005b8381101562000516578082015181840152602081019050620004f9565b8381111562000526576000848401525b50505050565b6200053781620004c2565b81146200054357600080fd5b50565b61412080620005566000396000f3fe608060405234801561001057600080fd5b506004361061018e5760003560e01c80636352211e116100de578063b88d4fde11610097578063d547cfb711610071578063d547cfb7146104a5578063e985e9c5146104c3578063f2fde38b146104f3578063f7b188a51461050f5761018e565b8063b88d4fde14610429578063c5cbd20614610445578063c87b56dd146104755761018e565b80636352211e1461036757806370a08231146103975780638456cb59146103c757806395d89b41146103d1578063a22cb465146103ef578063b2bdfa7b1461040b5761018e565b806323b872dd1161014b57806338bbfa501161012557806338bbfa50146102cf57806340c10f19146102eb57806342842e0e1461031b5780634f6ccce7146103375761018e565b806323b872dd1461026757806327dc297e146102835780632f745c591461029f5761018e565b806301ffc9a71461019357806306fdde03146101c3578063081812fc146101e1578063095ea7b31461021157806318160ddd1461022d57806321517f011461024b575b600080fd5b6101ad60048036036101a89190810190613362565b610519565b6040516101ba9190613b65565b60405180910390f35b6101cb610581565b6040516101d89190613b80565b60405180910390f35b6101fb60048036036101f691908101906133b4565b610623565b6040516102089190613ae3565b60405180910390f35b61022b6004803603610226919081019061319d565b6106a8565b005b610235610855565b6040516102429190613d4d565b60405180910390f35b610265600480360361026091908101906131d9565b610862565b005b610281600480360361027c9190810190613097565b610c9f565b005b61029d6004803603610298919081019061328f565b610cc2565b005b6102b960048036036102b4919081019061319d565b610d05565b6040516102c69190613d4d565b60405180910390f35b6102e960048036036102e491908101906132e3565b610d78565b005b6103056004803603610300919081019061319d565b610d7d565b6040516103129190613b65565b60405180910390f35b61033560048036036103309190810190613097565b610e2b565b005b610351600480360361034c91908101906133b4565b610e4b565b60405161035e9190613d4d565b60405180910390f35b610381600480360361037c91908101906133b4565b610e7f565b60405161038e9190613ae3565b60405180910390f35b6103b160048036036103ac9190810190613032565b610f31565b6040516103be9190613d4d565b60405180910390f35b6103cf610ff0565b005b6103d9611123565b6040516103e69190613b80565b60405180910390f35b61040960048036036104049190810190613161565b6111c5565b005b6104136112fb565b6040516104209190613ae3565b60405180910390f35b610443600480360361043e91908101906130e6565b611320565b005b61045f600480360361045a919081019061319d565b611346565b60405161046c9190613b65565b60405180910390f35b61048f600480360361048a91908101906133b4565b611565565b60405161049c9190613b80565b60405180910390f35b6104ad61162c565b6040516104ba9190613b80565b60405180910390f35b6104dd60048036036104d8919081019061305b565b6116ce565b6040516104ea9190613b65565b60405180910390f35b61050d60048036036105089190810190613032565b611762565b005b61051761191f565b005b600060016000837bffffffffffffffffffffffffffffffffffffffffffffffffffffffff19167bffffffffffffffffffffffffffffffffffffffffffffffffffffffff1916815260200190815260200160002060009054906101000a900460ff169050919050565b6060600f8054600181600116156101000203166002900480601f0160208091040260200160405190810160405280929190818152602001828054600181600116156101000203166002900480156106195780601f106105ee57610100808354040283529160200191610619565b820191906000526020600020905b8154815290600101906020018083116105fc57829003601f168201915b5050505050905090565b600061062e82611a50565b61066d576040517f08c379a000000000000000000000000000000000000000000000000000000000815260040161066490613cc2565b60405180910390fd5b6003600083815260200190815260200160002060009054906101000a900473ffffffffffffffffffffffffffffffffffffffff169050919050565b60006106b382610e7f565b90508073ffffffffffffffffffffffffffffffffffffffff168373ffffffffffffffffffffffffffffffffffffffff161415610724576040517f08c379a000000000000000000000000000000000000000000000000000000000815260040161071b90613ce2565b60405180910390fd5b8073ffffffffffffffffffffffffffffffffffffffff163373ffffffffffffffffffffffffffffffffffffffff161480610764575061076381336116ce565b5b6107a3576040517f08c379a000000000000000000000000000000000000000000000000000000000815260040161079a90613be2565b60405180910390fd5b826003600084815260200190815260200160002060006101000a81548173ffffffffffffffffffffffffffffffffffffffff021916908373ffffffffffffffffffffffffffffffffffffffff160217905550818373ffffffffffffffffffffffffffffffffffffffff168273ffffffffffffffffffffffffffffffffffffffff167f8c5be1e5ebec7d5bd14f71427d1e84f3dd0314c0f7b2291e5b200ac8c7c3b92560405160405180910390a4505050565b6000600880549050905090565b600086868686868660405160200161087f96959493929190613a73565b60405160208183030381529060405280519060200120905060006015600083815260200190815260200160002060009054906101000a900460ff16905080156108fd576040517f08c379a00000000000000000000000000000000000000000000000000000000081526004016108f490613c82565b60405180910390fd5b610905612a91565b6040518060e001604052808a81526020018981526020018881526020018781526020018673ffffffffffffffffffffffffffffffffffffffff16815260200185815260200160011515815250905061095b612afe565b6040518060400160405280836000015160006002811061097757fe5b60200201518152602001836000015160016002811061099257fe5b602002015181525090506109a4612b18565b604051806040016040528084602001516000600281106109c057fe5b6020020151815260200184602001516001600281106109db57fe5b602002015181525090506109ed612afe565b60405180604001604052808560400151600060028110610a0957fe5b602002015181526020018560400151600160028110610a2457fe5b60200201518152509050610a36612b3e565b60405180606001604052808581526020018481526020018381525090506000601360009054906101000a900473ffffffffffffffffffffffffffffffffffffffff1673ffffffffffffffffffffffffffffffffffffffff166343cd76fc838d6040518363ffffffff1660e01b8152600401610ab2929190613d22565b60206040518083038186803b158015610aca57600080fd5b505afa158015610ade573d6000803e3d6000fd5b505050506040513d601f19601f82011682018060405250610b029190810190613266565b905080610b44576040517f08c379a0000000000000000000000000000000000000000000000000000000008152600401610b3b90613c42565b60405180910390fd5b85601460008b8152602001908152602001600020600082015181600001906002610b6f929190612b71565b50602082015181600201906002610b87929190612bb1565b50604082015181600601906002610b9f929190612b71565b50606082015181600801906002610bb7929190612b71565b50608082015181600a0160006101000a81548173ffffffffffffffffffffffffffffffffffffffff021916908373ffffffffffffffffffffffffffffffffffffffff16021790555060a082015181600b015560c082015181600c0160006101000a81548160ff0219169083151502179055509050506001601560008a815260200190815260200160002060006101000a81548160ff0219169083151502179055507f209e782baeeecf4956303cb3e836fdf3f7279e6729ebccf2d309c292aedd3aeb33604051610c879190613afe565b60405180910390a15050505050505050505050505050565b610ca93382611ac2565b610cb257600080fd5b610cbd838383611b57565b505050565b610d01828260006040519080825280601f01601f191660200182016040528015610cfb5781602001600182028038833980820191505090505b50610d78565b5050565b6000610d1083610f31565b8210610d1b57600080fd5b600660008473ffffffffffffffffffffffffffffffffffffffff1673ffffffffffffffffffffffffffffffffffffffff1681526020019081526020016000208281548110610d6557fe5b9060005260206000200154905092915050565b505050565b60003373ffffffffffffffffffffffffffffffffffffffff166000809054906101000a900473ffffffffffffffffffffffffffffffffffffffff1673ffffffffffffffffffffffffffffffffffffffff1614610e0e576040517f08c379a0000000000000000000000000000000000000000000000000000000008152600401610e0590613c02565b60405180910390fd5b610e188383611b7b565b610e2182611b9c565b6001905092915050565b610e4683838360405180602001604052806000815250611320565b505050565b6000610e55610855565b8210610e6057600080fd5b60088281548110610e6d57fe5b90600052602060002001549050919050565b6000806002600084815260200190815260200160002060009054906101000a900473ffffffffffffffffffffffffffffffffffffffff169050600073ffffffffffffffffffffffffffffffffffffffff168173ffffffffffffffffffffffffffffffffffffffff161415610f28576040517f08c379a0000000000000000000000000000000000000000000000000000000008152600401610f1f90613bc2565b60405180910390fd5b80915050919050565b60008073ffffffffffffffffffffffffffffffffffffffff168273ffffffffffffffffffffffffffffffffffffffff161415610fa2576040517f08c379a0000000000000000000000000000000000000000000000000000000008152600401610f9990613bc2565b60405180910390fd5b610fe9600460008473ffffffffffffffffffffffffffffffffffffffff1673ffffffffffffffffffffffffffffffffffffffff168152602001908152602001600020611cc0565b9050919050565b3373ffffffffffffffffffffffffffffffffffffffff166000809054906101000a900473ffffffffffffffffffffffffffffffffffffffff1673ffffffffffffffffffffffffffffffffffffffff161461107f576040517f08c379a000000000000000000000000000000000000000000000000000000000815260040161107690613c02565b60405180910390fd5b600060149054906101000a900460ff16156110cf576040517f08c379a00000000000000000000000000000000000000000000000000000000081526004016110c690613ca2565b60405180910390fd5b6001600060146101000a81548160ff0219169083151502179055507f62e78cea01bee320cd4e420270b5ea74000d11b0c9f74754ebdbfc544b05a258336040516111199190613afe565b60405180910390a1565b606060108054600181600116156101000203166002900480601f0160208091040260200160405190810160405280929190818152602001828054600181600116156101000203166002900480156111bb5780601f10611190576101008083540402835291602001916111bb565b820191906000526020600020905b81548152906001019060200180831161119e57829003601f168201915b5050505050905090565b3373ffffffffffffffffffffffffffffffffffffffff168273ffffffffffffffffffffffffffffffffffffffff1614156111fe57600080fd5b80600560003373ffffffffffffffffffffffffffffffffffffffff1673ffffffffffffffffffffffffffffffffffffffff16815260200190815260200160002060008473ffffffffffffffffffffffffffffffffffffffff1673ffffffffffffffffffffffffffffffffffffffff16815260200190815260200160002060006101000a81548160ff0219169083151502179055508173ffffffffffffffffffffffffffffffffffffffff163373ffffffffffffffffffffffffffffffffffffffff167f17307eab39ab6107e8899845ad3d59bd9653f200f220920489ca2b5937696c31836040516112ef9190613b65565b60405180910390a35050565b6000809054906101000a900473ffffffffffffffffffffffffffffffffffffffff1681565b61132b848484610c9f565b61133784848484611cce565b61134057600080fd5b50505050565b6000611350612a91565b601460008481526020019081526020016000206040518060e0016040529081600082016002806020026040519081016040528092919082600280156113aa576020028201915b815481526020019060010190808311611396575b5050505050815260200160028201600280602002604051908101604052809291906000905b8282101561142857838260020201600280602002604051908101604052809291908260028015611414576020028201915b815481526020019060010190808311611400575b5050505050815260200190600101906113cf565b5050505081526020016006820160028060200260405190810160405280929190826002801561146c576020028201915b815481526020019060010190808311611458575b50505050508152602001600882016002806020026040519081016040528092919082600280156114b1576020028201915b81548152602001906001019080831161149d575b50505050508152602001600a820160009054906101000a900473ffffffffffffffffffffffffffffffffffffffff1673ffffffffffffffffffffffffffffffffffffffff1673ffffffffffffffffffffffffffffffffffffffff168152602001600b8201548152602001600c820160009054906101000a900460ff1615151515815250509050600115158160c00151151514611559576115518484610d7d565b91505061155f565b60009150505b92915050565b606061157082611a50565b61157957600080fd5b601260008381526020019081526020016000208054600181600116156101000203166002900480601f0160208091040260200160405190810160405280929190818152602001828054600181600116156101000203166002900480156116205780601f106115f557610100808354040283529160200191611620565b820191906000526020600020905b81548152906001019060200180831161160357829003601f168201915b50505050509050919050565b606060118054600181600116156101000203166002900480601f0160208091040260200160405190810160405280929190818152602001828054600181600116156101000203166002900480156116c45780601f10611699576101008083540402835291602001916116c4565b820191906000526020600020905b8154815290600101906020018083116116a757829003601f168201915b5050505050905090565b6000600560008473ffffffffffffffffffffffffffffffffffffffff1673ffffffffffffffffffffffffffffffffffffffff16815260200190815260200160002060008373ffffffffffffffffffffffffffffffffffffffff1673ffffffffffffffffffffffffffffffffffffffff16815260200190815260200160002060009054906101000a900460ff16905092915050565b3373ffffffffffffffffffffffffffffffffffffffff166000809054906101000a900473ffffffffffffffffffffffffffffffffffffffff1673ffffffffffffffffffffffffffffffffffffffff16146117f1576040517f08c379a00000000000000000000000000000000000000000000000000000000081526004016117e890613c02565b60405180910390fd5b600073ffffffffffffffffffffffffffffffffffffffff168173ffffffffffffffffffffffffffffffffffffffff161415611861576040517f08c379a000000000000000000000000000000000000000000000000000000000815260040161185890613bc2565b60405180910390fd5b8073ffffffffffffffffffffffffffffffffffffffff166000809054906101000a900473ffffffffffffffffffffffffffffffffffffffff1673ffffffffffffffffffffffffffffffffffffffff167f7699c77f2404f9b6bbd003861bb4af8ae70b205e19e73d7ec7fe4590db59a6b760405160405180910390a3806000806101000a81548173ffffffffffffffffffffffffffffffffffffffff021916908373ffffffffffffffffffffffffffffffffffffffff16021790555050565b3373ffffffffffffffffffffffffffffffffffffffff166000809054906101000a900473ffffffffffffffffffffffffffffffffffffffff1673ffffffffffffffffffffffffffffffffffffffff16146119ae576040517f08c379a00000000000000000000000000000000000000000000000000000000081526004016119a590613c02565b60405180910390fd5b600060149054906101000a900460ff166119fd576040517f08c379a00000000000000000000000000000000000000000000000000000000081526004016119f490613d02565b60405180910390fd5b60008060146101000a81548160ff0219169083151502179055507f5db9ee0a495bf2e6ff9c91a7834c1ba4fdd244a5e8aa4e537bd38aeae4b073aa33604051611a469190613afe565b60405180910390a1565b6000806002600084815260200190815260200160002060009054906101000a900473ffffffffffffffffffffffffffffffffffffffff169050600073ffffffffffffffffffffffffffffffffffffffff168173ffffffffffffffffffffffffffffffffffffffff161415915050919050565b600080611ace83610e7f565b90508073ffffffffffffffffffffffffffffffffffffffff168473ffffffffffffffffffffffffffffffffffffffff161480611b3d57508373ffffffffffffffffffffffffffffffffffffffff16611b2584610623565b73ffffffffffffffffffffffffffffffffffffffff16145b80611b4e5750611b4d81856116ce565b5b91505092915050565b611b62838383611de5565b611b6c8382612014565b611b7682826121b2565b505050565b611b858282612279565b611b8f82826121b2565b611b988161242b565b5050565b611ba581611a50565b611be4576040517f08c379a0000000000000000000000000000000000000000000000000000000008152600401611bdb90613c62565b60405180910390fd5b6060611bef82612477565b9050611c9560118054600181600116156101000203166002900480601f016020809104026020016040519081016040528092919081815260200182805460018160011615610100020316600290048015611c8a5780601f10611c5f57610100808354040283529160200191611c8a565b820191906000526020600020905b815481529060010190602001808311611c6d57829003601f168201915b5050505050826125a4565b601260008481526020019081526020016000209080519060200190611cbb929190612c01565b505050565b600081600001549050919050565b6000611cef8473ffffffffffffffffffffffffffffffffffffffff166125e8565b611cfc5760019050611ddd565b60008473ffffffffffffffffffffffffffffffffffffffff1663150b7a02338887876040518563ffffffff1660e01b8152600401611d3d9493929190613b19565b602060405180830381600087803b158015611d5757600080fd5b505af1158015611d6b573d6000803e3d6000fd5b505050506040513d601f19601f82011682018060405250611d8f919081019061338b565b905063150b7a0260e01b7bffffffffffffffffffffffffffffffffffffffffffffffffffffffff1916817bffffffffffffffffffffffffffffffffffffffffffffffffffffffff1916149150505b949350505050565b8273ffffffffffffffffffffffffffffffffffffffff16611e0582610e7f565b73ffffffffffffffffffffffffffffffffffffffff1614611e5b576040517f08c379a0000000000000000000000000000000000000000000000000000000008152600401611e5290613ba2565b60405180910390fd5b600073ffffffffffffffffffffffffffffffffffffffff168273ffffffffffffffffffffffffffffffffffffffff161415611ecb576040517f08c379a0000000000000000000000000000000000000000000000000000000008152600401611ec290613bc2565b60405180910390fd5b611ed481612633565b611f1b600460008573ffffffffffffffffffffffffffffffffffffffff1673ffffffffffffffffffffffffffffffffffffffff1681526020019081526020016000206126f1565b611f62600460008473ffffffffffffffffffffffffffffffffffffffff1673ffffffffffffffffffffffffffffffffffffffff168152602001908152602001600020612714565b816002600083815260200190815260200160002060006101000a81548173ffffffffffffffffffffffffffffffffffffffff021916908373ffffffffffffffffffffffffffffffffffffffff160217905550808273ffffffffffffffffffffffffffffffffffffffff168473ffffffffffffffffffffffffffffffffffffffff167fddf252ad1be2c89b69c2b068fc378daa952ba7f163c4a11628f55a4df523b3ef60405160405180910390a4505050565b600061206c6001600660008673ffffffffffffffffffffffffffffffffffffffff1673ffffffffffffffffffffffffffffffffffffffff1681526020019081526020016000208054905061272a90919063ffffffff16565b9050600060076000848152602001908152602001600020549050818114612159576000600660008673ffffffffffffffffffffffffffffffffffffffff1673ffffffffffffffffffffffffffffffffffffffff16815260200190815260200160002083815481106120d957fe5b9060005260206000200154905080600660008773ffffffffffffffffffffffffffffffffffffffff1673ffffffffffffffffffffffffffffffffffffffff168152602001908152602001600020838154811061213157fe5b9060005260206000200181905550816007600083815260200190815260200160002081905550505b600660008573ffffffffffffffffffffffffffffffffffffffff1673ffffffffffffffffffffffffffffffffffffffff1681526020019081526020016000208054809190600190036121ab9190612c81565b5050505050565b600660008373ffffffffffffffffffffffffffffffffffffffff1673ffffffffffffffffffffffffffffffffffffffff168152602001908152602001600020805490506007600083815260200190815260200160002081905550600660008373ffffffffffffffffffffffffffffffffffffffff1673ffffffffffffffffffffffffffffffffffffffff1681526020019081526020016000208190806001815401808255809150509060018203906000526020600020016000909192909190915055505050565b600073ffffffffffffffffffffffffffffffffffffffff168273ffffffffffffffffffffffffffffffffffffffff1614156122e9576040517f08c379a00000000000000000000000000000000000000000000000000000000081526004016122e090613bc2565b60405180910390fd5b6122f281611a50565b15612332576040517f08c379a000000000000000000000000000000000000000000000000000000000815260040161232990613c22565b60405180910390fd5b816002600083815260200190815260200160002060006101000a81548173ffffffffffffffffffffffffffffffffffffffff021916908373ffffffffffffffffffffffffffffffffffffffff1602179055506123cb600460008473ffffffffffffffffffffffffffffffffffffffff1673ffffffffffffffffffffffffffffffffffffffff168152602001908152602001600020612714565b808273ffffffffffffffffffffffffffffffffffffffff16600073ffffffffffffffffffffffffffffffffffffffff167fddf252ad1be2c89b69c2b068fc378daa952ba7f163c4a11628f55a4df523b3ef60405160405180910390a45050565b6008805490506009600083815260200190815260200160002081905550600881908060018154018082558091505090600182039060005260206000200160009091929091909150555050565b606060008214156124bf576040518060400160405280600181526020017f3000000000000000000000000000000000000000000000000000000000000000815250905061259f565b600082905060005b600082146124e9578080600101915050600a82816124e157fe5b0491506124c7565b6060816040519080825280601f01601f19166020018201604052801561251e5781602001600182028038833980820191505090505b50905060006001830390505b6000861461259757600a868161253c57fe5b0660300160f81b8282806001900393508151811061255657fe5b60200101907effffffffffffffffffffffffffffffffffffffffffffffffffffffffffffff1916908160001a905350600a868161258f57fe5b04955061252a565b819450505050505b919050565b60606125e08383604051806020016040528060008152506040518060200160405280600081525060405180602001604052806000815250612774565b905092915050565b60008060007fc5d2460186f7233c927e7db2dcc703c0e500b653ca82273b7bfad8045d85a47060001b9050833f915080821415801561262a57506000801b8214155b92505050919050565b600073ffffffffffffffffffffffffffffffffffffffff166003600083815260200190815260200160002060009054906101000a900473ffffffffffffffffffffffffffffffffffffffff1673ffffffffffffffffffffffffffffffffffffffff16146126ee5760006003600083815260200190815260200160002060006101000a81548173ffffffffffffffffffffffffffffffffffffffff021916908373ffffffffffffffffffffffffffffffffffffffff1602179055505b50565b6127096001826000015461272a90919063ffffffff16565b816000018190555050565b6001816000016000828254019250508190555050565b600061276c83836040518060400160405280601e81526020017f536166654d6174683a207375627472616374696f6e206f766572666c6f770000815250612a36565b905092915050565b6060808690506060869050606086905060608690506060869050606081518351855187518951010101016040519080825280601f01601f1916602001820160405280156127d05781602001600182028038833980820191505090505b509050606081905060008090506000809050600090505b8851811015612855578881815181106127fc57fe5b602001015160f81c60f81b83838060010194508151811061281957fe5b60200101907effffffffffffffffffffffffffffffffffffffffffffffffffffffffffffff1916908160001a90535080806001019150506127e7565b600090505b87518110156128c85787818151811061286f57fe5b602001015160f81c60f81b83838060010194508151811061288c57fe5b60200101907effffffffffffffffffffffffffffffffffffffffffffffffffffffffffffff1916908160001a905350808060010191505061285a565b600090505b865181101561293b578681815181106128e257fe5b602001015160f81c60f81b8383806001019450815181106128ff57fe5b60200101907effffffffffffffffffffffffffffffffffffffffffffffffffffffffffffff1916908160001a90535080806001019150506128cd565b600090505b85518110156129ae5785818151811061295557fe5b602001015160f81c60f81b83838060010194508151811061297257fe5b60200101907effffffffffffffffffffffffffffffffffffffffffffffffffffffffffffff1916908160001a9053508080600101915050612940565b600090505b8451811015612a21578481815181106129c857fe5b602001015160f81c60f81b8383806001019450815181106129e557fe5b60200101907effffffffffffffffffffffffffffffffffffffffffffffffffffffffffffff1916908160001a90535080806001019150506129b3565b82995050505050505050505095945050505050565b6000838311158290612a7e576040517f08c379a0000000000000000000000000000000000000000000000000000000008152600401612a759190613b80565b60405180910390fd5b5060008385039050809150509392505050565b6040518060e00160405280612aa4612cad565b8152602001612ab1612ccf565b8152602001612abe612cad565b8152602001612acb612cad565b8152602001600073ffffffffffffffffffffffffffffffffffffffff168152602001600081526020016000151581525090565b604051806040016040528060008152602001600081525090565b6040518060400160405280612b2b612cad565b8152602001612b38612cad565b81525090565b6040518060600160405280612b51612cfc565b8152602001612b5e612d16565b8152602001612b6b612cfc565b81525090565b8260028101928215612ba0579160200282015b82811115612b9f578251825591602001919060010190612b84565b5b509050612bad9190612d3c565b5090565b82600280028101928215612bf0579160200282015b82811115612bef57825182906002612bdf929190612b71565b5091602001919060020190612bc6565b5b509050612bfd9190612d61565b5090565b828054600181600116156101000203166002900490600052602060002090601f016020900481019282601f10612c4257805160ff1916838001178555612c70565b82800160010185558215612c70579182015b82811115612c6f578251825591602001919060010190612c54565b5b509050612c7d9190612d3c565b5090565b815481835581811115612ca857818360005260206000209182019101612ca79190612d3c565b5b505050565b6040518060400160405280600290602082028038833980820191505090505090565b60405180604001604052806002905b612ce6612cad565b815260200190600190039081612cde5790505090565b604051806040016040528060008152602001600081525090565b6040518060400160405280612d29612cad565b8152602001612d36612cad565b81525090565b612d5e91905b80821115612d5a576000816000905550600101612d42565b5090565b90565b612d8a91905b80821115612d865760008181612d7d9190612d8d565b50600201612d67565b5090565b90565b506000815560010160009055565b600081359050612daa8161406a565b92915050565b600082601f830112612dc157600080fd5b6002612dd4612dcf82613d95565b613d68565b91508183856040840282011115612dea57600080fd5b60005b83811015612e1a5781612e008882612e24565b845260208401935060408301925050600181019050612ded565b5050505092915050565b600082601f830112612e3557600080fd5b6002612e48612e4382613db7565b613d68565b91508183856020840282011115612e5e57600080fd5b60005b83811015612e8e5781612e74888261301d565b845260208401935060208301925050600181019050612e61565b5050505092915050565b600082601f830112612ea957600080fd5b6002612ebc612eb782613dd9565b613d68565b91508183856020840282011115612ed257600080fd5b60005b83811015612f025781612ee8888261301d565b845260208401935060208301925050600181019050612ed5565b5050505092915050565b600081359050612f1b81614081565b92915050565b600081519050612f3081614081565b92915050565b600081359050612f4581614098565b92915050565b600081359050612f5a816140af565b92915050565b600081519050612f6f816140af565b92915050565b600082601f830112612f8657600080fd5b8135612f99612f9482613dfb565b613d68565b91508082526020830160208301858383011115612fb557600080fd5b612fc0838284613fdc565b50505092915050565b600082601f830112612fda57600080fd5b8135612fed612fe882613e27565b613d68565b9150808252602083016020830185838301111561300957600080fd5b613014838284613fdc565b50505092915050565b60008135905061302c816140c6565b92915050565b60006020828403121561304457600080fd5b600061305284828501612d9b565b91505092915050565b6000806040838503121561306e57600080fd5b600061307c85828601612d9b565b925050602061308d85828601612d9b565b9150509250929050565b6000806000606084860312156130ac57600080fd5b60006130ba86828701612d9b565b93505060206130cb86828701612d9b565b92505060406130dc8682870161301d565b9150509250925092565b600080600080608085870312156130fc57600080fd5b600061310a87828801612d9b565b945050602061311b87828801612d9b565b935050604061312c8782880161301d565b925050606085013567ffffffffffffffff81111561314957600080fd5b61315587828801612f75565b91505092959194509250565b6000806040838503121561317457600080fd5b600061318285828601612d9b565b925050602061319385828601612f0c565b9150509250929050565b600080604083850312156131b057600080fd5b60006131be85828601612d9b565b92505060206131cf8582860161301d565b9150509250929050565b60008060008060008061018087890312156131f357600080fd5b600061320189828a01612e98565b965050604061321289828a01612db0565b95505060c061322389828a01612e98565b94505061010061323589828a01612e98565b93505061014061324789828a01612d9b565b92505061016061325989828a0161301d565b9150509295509295509295565b60006020828403121561327857600080fd5b600061328684828501612f21565b91505092915050565b600080604083850312156132a257600080fd5b60006132b085828601612f36565b925050602083013567ffffffffffffffff8111156132cd57600080fd5b6132d985828601612fc9565b9150509250929050565b6000806000606084860312156132f857600080fd5b600061330686828701612f36565b935050602084013567ffffffffffffffff81111561332357600080fd5b61332f86828701612fc9565b925050604084013567ffffffffffffffff81111561334c57600080fd5b61335886828701612f75565b9150509250925092565b60006020828403121561337457600080fd5b600061338284828501612f4b565b91505092915050565b60006020828403121561339d57600080fd5b60006133ab84828501612f60565b91505092915050565b6000602082840312156133c657600080fd5b60006133d48482850161301d565b91505092915050565b60006133e983836135b6565b60408301905092915050565b60006134018383613a2f565b60208301905092915050565b60006134198383613a4d565b60208301905092915050565b61342e81613fa6565b82525050565b61343d81613f28565b82525050565b61345461344f82613f28565b61401e565b82525050565b61346381613e71565b61346d8184613ecf565b925061347882613e53565b8060005b838110156134a957815161349087826133dd565b965061349b83613ea8565b92505060018101905061347c565b505050505050565b6134ba81613e87565b6134c48184613ee5565b92506134cf82613e67565b8060005b838110156135005781516134e787826133f5565b96506134f283613ec2565b9250506001810190506134d3565b505050505050565b61351181613e87565b61351b8184613efb565b925061352682613e67565b8060005b8381101561355757815161353e878261340d565b965061354983613ec2565b92505060018101905061352a565b505050505050565b61356881613e7c565b6135728184613eda565b925061357d82613e5d565b8060005b838110156135ae57815161359587826133f5565b96506135a083613eb5565b925050600181019050613581565b505050505050565b6135bf81613e7c565b6135c98184613ef0565b92506135d482613e5d565b8060005b838110156136055781516135ec878261340d565b96506135f783613eb5565b9250506001810190506135d8565b505050505050565b61361681613f3a565b82525050565b600061362782613e92565b6136318185613f06565b9350613641818560208601613feb565b61364a8161404c565b840191505092915050565b600061366082613e9d565b61366a8185613f17565b935061367a818560208601613feb565b6136838161404c565b840191505092915050565b600061369b600d83613f17565b91507f496e76616c6964206f776e6572000000000000000000000000000000000000006000830152602082019050919050565b60006136db600f83613f17565b91507f496e76616c6964206164647265737300000000000000000000000000000000006000830152602082019050919050565b600061371b601983613f17565b91507f41646472657373206973206e6f7420617574686f7269736564000000000000006000830152602082019050919050565b600061375b601483613f17565b91507f41646472657373206973206e6f74206f776e65720000000000000000000000006000830152602082019050919050565b600061379b601383613f17565b91507f546f6b656e20616c7265616479206578697374000000000000000000000000006000830152602082019050919050565b60006137db601783613f17565b91507f53686f756c6420626520612076616c69642070726f6f660000000000000000006000830152602082019050919050565b600061381b601483613f17565b91507f546f6b656e20646f6573206e6f742065786973740000000000000000000000006000830152602082019050919050565b600061385b601383613f17565b91507f54686520736f6c7574696f6e20657869737473000000000000000000000000006000830152602082019050919050565b600061389b601d83613f17565b91507f436f6e74726163742073686f756c64206e6f74206265207061757365640000006000830152602082019050919050565b60006138db601583613f17565b91507f746f6b656e20646f6573206e6f742065786973747300000000000000000000006000830152602082019050919050565b600061391b601e83613f17565b91507f546f6b656e20616c72656164792062656c6f6e677320746f206f776e657200006000830152602082019050919050565b600061395b601983613f17565b91507f436f6e74726163742073686f756c6420626520706175736564000000000000006000830152602082019050919050565b6040820160008201516139a46000850182613a2f565b5060208201516139b76020850182613a2f565b50505050565b6080820160008201516139d3600085018261355f565b5060208201516139e6604085018261355f565b50505050565b61010082016000820151613a03600085018261398e565b506020820151613a1660408501826139bd565b506040820151613a2960c085018261398e565b50505050565b613a3881613f9c565b82525050565b613a4781613f9c565b82525050565b613a5681613f9c565b82525050565b613a6d613a6882613f9c565b614042565b82525050565b6000613a7f8289613508565b604082019150613a8f828861345a565b608082019150613a9f8287613508565b604082019150613aaf8286613508565b604082019150613abf8285613443565b601482019150613acf8284613a5c565b602082019150819050979650505050505050565b6000602082019050613af86000830184613434565b92915050565b6000602082019050613b136000830184613425565b92915050565b6000608082019050613b2e6000830187613425565b613b3b6020830186613434565b613b486040830185613a3e565b8181036060830152613b5a818461361c565b905095945050505050565b6000602082019050613b7a600083018461360d565b92915050565b60006020820190508181036000830152613b9a8184613655565b905092915050565b60006020820190508181036000830152613bbb8161368e565b9050919050565b60006020820190508181036000830152613bdb816136ce565b9050919050565b60006020820190508181036000830152613bfb8161370e565b9050919050565b60006020820190508181036000830152613c1b8161374e565b9050919050565b60006020820190508181036000830152613c3b8161378e565b9050919050565b60006020820190508181036000830152613c5b816137ce565b9050919050565b60006020820190508181036000830152613c7b8161380e565b9050919050565b60006020820190508181036000830152613c9b8161384e565b9050919050565b60006020820190508181036000830152613cbb8161388e565b9050919050565b60006020820190508181036000830152613cdb816138ce565b9050919050565b60006020820190508181036000830152613cfb8161390e565b9050919050565b60006020820190508181036000830152613d1b8161394e565b9050919050565b600061014082019050613d3860008301856139ec565b613d466101008301846134b1565b9392505050565b6000602082019050613d626000830184613a3e565b92915050565b6000604051905081810181811067ffffffffffffffff82111715613d8b57600080fd5b8060405250919050565b600067ffffffffffffffff821115613dac57600080fd5b602082029050919050565b600067ffffffffffffffff821115613dce57600080fd5b602082029050919050565b600067ffffffffffffffff821115613df057600080fd5b602082029050919050565b600067ffffffffffffffff821115613e1257600080fd5b601f19601f8301169050602081019050919050565b600067ffffffffffffffff821115613e3e57600080fd5b601f19601f8301169050602081019050919050565b6000819050919050565b6000819050919050565b6000819050919050565b600060029050919050565b600060029050919050565b600060029050919050565b600081519050919050565b600081519050919050565b6000602082019050919050565b6000602082019050919050565b6000602082019050919050565b600081905092915050565b600081905092915050565b600081905092915050565b600081905092915050565b600081905092915050565b600082825260208201905092915050565b600082825260208201905092915050565b6000613f3382613f7c565b9050919050565b60008115159050919050565b6000819050919050565b60007fffffffff0000000000000000000000000000000000000000000000000000000082169050919050565b600073ffffffffffffffffffffffffffffffffffffffff82169050919050565b6000819050919050565b6000613fb182613fb8565b9050919050565b6000613fc382613fca565b9050919050565b6000613fd582613f7c565b9050919050565b82818337600083830152505050565b60005b83811015614009578082015181840152602081019050613fee565b83811115614018576000848401525b50505050565b600061402982614030565b9050919050565b600061403b8261405d565b9050919050565b6000819050919050565b6000601f19601f8301169050919050565b60008160601b9050919050565b61407381613f28565b811461407e57600080fd5b50565b61408a81613f3a565b811461409557600080fd5b50565b6140a181613f46565b81146140ac57600080fd5b50565b6140b881613f50565b81146140c357600080fd5b50565b6140cf81613f9c565b81146140da57600080fd5b5056fea365627a7a7231582081a5946ac0451300faa371bf7ab32f62d4e5160f52c08e0ef63cedb2d336bad66c6578706572696d656e74616cf564736f6c63430005110040",
  "source": "// SPDX-License-Identifier: MIT\npragma solidity ^0.5.0;\npragma experimental ABIEncoderV2;\n\nimport \"./ERC721Mintable.sol\";\nimport \"./verifier.sol\";\n\n// TODO define a contract call to the zokrates generated solidity contract <Verifier> or <renamedVerifier>\n\n// TODO define another contract named SolnSquareVerifier that inherits from your ERC721Mintable class\n\n// TODO define a solutions struct that can hold an index & an address\n\n// TODO define an array of the above struct\n\n// TODO define a mapping to store unique solutions submitted\n\n// TODO Create an event to emit when a solution is added\n\n// TODO Create a function to add the solutions to the array and emit the event\n\n// TODO Create a function to mint new NFT only after the solution has been verified\n//  - make sure the solution is unique (has not been used before)\n//  - make sure you handle metadata as well as tokenSuplly\n\ncontract SolnSquareVerifier is CustomERC721Token {\n    Verifier verifierCont;\n\n    struct Solution {\n        uint256[2] a;\n        uint256[2][2] b;\n        uint256[2] c;\n        uint256[2] input;\n        address to;\n        uint256 tokenId;\n        bool used;\n    }\n\n    mapping(uint256 => Solution) solutions;\n\n    mapping(bytes32 => bool) existingSolutions;\n\n    event SolutionAdded(address owner);\n\n    constructor(\n        address verifierAddress,\n        string memory name,\n        string memory symbol,\n        string memory baseTokenURI\n    ) public CustomERC721Token(name, symbol, baseTokenURI) {\n        verifierCont = Verifier(verifierAddress);\n    }\n\n    function addSolution(\n        uint256[2] memory a,\n        uint256[2][2] memory b,\n        uint256[2] memory c,\n        uint256[2] memory input,\n        address to,\n        uint256 tokenId\n    ) public {\n        bytes32 key = keccak256(abi.encodePacked(a, b, c, input, to, tokenId));\n\n        bool exist = existingSolutions[key];\n        require(!exist, \"The solution exists\");\n\n        Solution memory sol = Solution(a, b, c, input, to, tokenId, true);\n        Pairing.G1Point memory point_a = Pairing.G1Point(sol.a[0], sol.a[1]);\n        Pairing.G2Point memory point_b = Pairing.G2Point(sol.b[0], sol.b[1]);\n        Pairing.G1Point memory point_c = Pairing.G1Point(sol.c[0], sol.c[1]);\n        Verifier.Proof memory proof = Verifier.Proof(point_a, point_b, point_c);\n\n        bool verified = verifierCont.verifyTx(proof, input);\n\n        require(verified, \"Should be a valid proof\");\n        solutions[tokenId] = sol;\n        existingSolutions[key] = true;\n        emit SolutionAdded(msg.sender);\n    }\n\n    function mintVerify(address to, uint256 tokenId) public returns (bool) {\n        Solution memory sol = solutions[tokenId];\n        if (sol.used != true) {\n            return super.mint(to, tokenId);\n        }\n        return false;\n    }\n}\n",
  "sourcePath": "/Users/angshumanhalder/Documents/blockchain-tuts/Blockchain-Capstone-1/Blockchain-Capstone/Blockchain-Capstone/eth-contracts/contracts/SolnSquareVerifier.sol",
  "compiler": {
    "name": "solc",
    "version": "0.5.17+commit.d19bba13.Emscripten.clang"
  },
  "schemaVersion": "3.4.1",
  "updatedAt": "2021-08-31T14:57:06.153Z",
  "networkType": "ethereum",
  "devdoc": {
    "methods": {
      "isApprovedForAll(address,address)": {
        "details": "Tells whether an operator is approved by a given owner",
        "params": {
          "operator": "operator address which you want to query the approval of",
          "owner": "owner address which you want to query the approval of"
        },
        "return": "bool whether the given operator is approved by the given owner"
      },
      "setApprovalForAll(address,bool)": {
        "details": "Sets or unsets the approval of a given operator An operator is allowed to transfer all tokens of the sender on their behalf",
        "params": {
          "approved": "representing the status of the approval to be set",
          "to": "operator address to set the approval"
        }
      },
      "supportsInterface(bytes4)": {
        "details": "implement supportsInterface(bytes4) using a lookup table"
      },
      "tokenByIndex(uint256)": {
        "details": "Gets the token ID at a given index of all the tokens in this contract Reverts if the index is greater or equal to the total number of tokens",
        "params": {
          "index": "uint256 representing the index to be accessed of the tokens list"
        },
        "return": "uint256 token ID at the given index of the tokens list"
      },
      "tokenOfOwnerByIndex(address,uint256)": {
        "details": "Gets the token ID at a given index of the tokens list of the requested owner",
        "params": {
          "index": "uint256 representing the index to be accessed of the requested tokens list",
          "owner": "address owning the tokens list to be accessed"
        },
        "return": "uint256 token ID at the given index of the tokens list owned by the requested address"
      },
      "totalSupply()": {
        "details": "Gets the total amount of tokens stored by the contract",
        "return": "uint256 representing the total amount of tokens"
      }
    }
  },
  "userdoc": {
    "methods": {}
  }
}